:100000000C942A000C9447000C9446050C9447006D
:100010000C9447000C94B7050C9447000C944700CF
:100020000C9447000C9447000C9447000C94470034
:100030000C9447000C9447000C9447000C94470024
:100040000C9447000C9447000C9447000C94470014
:100050000C94470011241FBECFE5D8E0DEBFCDBF12
:1000600010E0A0E6B0E0E2E4FEE002C005900D92F0
:10007000A23AB107D9F720E0A2EAB0E001C01D9290
:10008000AD3AB207E1F70E94B7030C941F070C9436
:1000900000004FEF63E080E00E946A0140E063E00F
:1000A00080E00E940002089563E080E00E94AD02BB
:1000B00008954FEF64E081E00E946A014FEF65E030
:1000C00081E00E946A0140E064E081E00E94000259
:1000D00040E065E081E00E9400024FEF66E081E0D1
:1000E0000E946A014FEF67E081E00E946A0140E0F0
:1000F00066E081E00E94000240E067E081E00E944B
:1001000000024FEF63E081E00E946A011CBE85E6B9
:1001100083BF19BE08958CBF662319F0613061F06A
:1001200008954FEF64E081E00E94000240E065E046
:1001300081E00E940002089540E064E081E00E94B6
:1001400000024FEF65E081E00E94000208958CBF3D
:10015000662319F0613061F008954FEF66E081E0A9
:100160000E94000240E067E081E00E9400020895E2
:1001700040E066E081E00E9400024FEF67E081E02E
:100180000E940002089540E064E081E00E940002C5
:1001900040E065E081E00E94000240E066E081E02E
:1001A0000E94000240E067E081E00E9400020895A2
:1001B000CF93DF93EC0161E08CE890E00E948B002C
:1001C00060E08CE890E00E94A700C230D10589F081
:1001D000C330D105D1F0219721F52FEF80E192E1D5
:1001E000215080409040E1F700C000000E94C30011
:1001F0001AC02FEF81E294E2215080409040E1F755
:1002000000C000000E94C3000EC02FEF82E396E3FF
:10021000215080409040E1F700C000000E94C300E0
:1002200002C00E94C300DF91CF910895CF93DF9366
:10023000EC0160E08CE890E00E948B0061E08CE8CB
:1002400090E00E94A700C230D10589F0C330D105EB
:10025000D1F0219721F52FEF80E192E121508040EC
:100260009040E1F700C000000E94C3001AC02FEFC9
:1002700081E294E2215080409040E1F700C000000C
:100280000E94C3000EC02FEF82E396E3215080400E
:100290009040E1F700C000000E94C30002C00E942D
:1002A000C300DF91CF91089560E08CE890E00E9458
:1002B0008B0061E08CE890E00E94A7002FEF85E6BC
:1002C0009CE6215080409040E1F700C000000E9471
:1002D000C3000895442321F04F3F09F44BC0089513
:1002E0006830C0F5813091F028F08230D9F0833049
:1002F00029F108952AB381E090E002C0880F991F88
:100300006A95E2F7809582238ABB089527B381E03E
:1003100090E002C0880F991F6A95E2F780958223CA
:1003200087BB089524B381E090E002C0880F991F35
:100330006A95E2F78095822384BB089521B381E01A
:1003400090E002C0880F991F6A95E2F7809582239A
:1003500081BB0895813041F028F0823039F083303C
:1003600039F008954ABB089547BB089544BB0895EA
:1003700041BB08956830A0F5813089F028F08230C3
:10038000C9F0833011F108952AB381E090E002C0F2
:10039000880F991F6A95E2F7822B8ABB089527B3CD
:1003A00081E090E002C0880F991F6A95E2F7822BE6
:1003B00087BB089524B381E090E002C0880F991FA5
:1003C0006A95E2F7822B84BB089521B381E090E027
:1003D00002C0880F991F6A95E2F7822B81BB0895AE
:1003E000813041F028F0823039F0833039F00895BF
:1003F0004ABB089547BB089544BB089541BB089587
:100400001F93CF93DF93C82F162FD42F442321F0AF
:100410004F3F09F452C09DC06830D8F54FEF0E949D
:100420006A01C13091F028F0C230D9F0C33029F10F
:1004300090C02BB381E090E002C0880F991F1A95FD
:10044000E2F7809582238BBB84C028B381E090E0E3
:1004500002C0880F991F1A95E2F78095822388BB06
:1004600078C025B381E090E002C0880F991F1A95EB
:10047000E2F78095822385BB6CC022B381E090E0D7
:1004800002C0880F991F1A95E2F78095822382BBDC
:1004900060C04FEF68E00E946A01C13041F028F06F
:1004A000C23039F0C33039F054C0DBBB52C0D8BBC6
:1004B00050C0D5BB4EC0D2BB4CC06830B8F54FEF72
:1004C0000E946A01C13089F028F0C230C9F0C330FF
:1004D00011F13FC02BB381E090E002C0880F991F5B
:1004E0001A95E2F7822B8BBB34C028B381E090E0F1
:1004F00002C0880F991F1A95E2F7822B88BB29C08A
:1005000025B381E090E002C0880F991F1A95E2F7A9
:10051000822B85BB1EC022B381E090E002C0880F11
:10052000991F1A95E2F7822B82BB13C04FEF68E048
:100530000E946A01C13041F028F0C23039F0C33066
:1005400039F007C0DBBB05C0D8BB03C0D5BB01C0B9
:10055000D2BBDF91CF911F910895CF93DF93C82F26
:10056000D62F6830B8F54FEF0E946A01C13089F08C
:1005700028F0C230C9F0C33011F147C02BB381E07D
:1005800090E002C0880F991FDA95E2F782278BBBB3
:100590003CC028B381E090E002C0880F991FDA9533
:1005A000E2F7822788BB31C025B381E090E002C02A
:1005B000880F991FDA95E2F7822785BB26C022B300
:1005C00081E090E002C0880F991FDA95E2F7822758
:1005D00082BB1BC04FEF68E00E946A01C13051F03E
:1005E00028F0C23059F0C33069F00FC08BB380954A
:1005F0008BBB0BC088B3809588BB07C085B3809543
:1006000085BB03C082B3809582BBDF91CF910895F3
:10061000982F907F9BBB98B39D7F98BB98B39160B8
:1006200098BBEFE1FEE43197F1F700C0000098B30A
:100630009E7F98BBEFE1FEE43197F1F700C0000028
:10064000F0E18F9FC00111248BBB88B3816088BB10
:100650008FE19EE40197F1F700C0000088B38E7F20
:1006600088BBEFE1FEE43197F1F700C00000089588
:1006700080EF8ABB87B3876087BB80E28BBB88B380
:10068000816088BB8FE19EE40197F1F700C0000014
:1006900088B38E7F88BB8FE19EE40197F1F700C09D
:1006A000000088E20E9408038FE19EE40197F1F7C1
:1006B00000C000008FE00E9408038FE19EE40197D4
:1006C000F1F700C0000080E80E9408030895982F09
:1006D000907F9BBB98B3926098BB98B3916098BB96
:1006E000EFE1FEE43197F1F700C0000098B39E7F80
:1006F00098BBEFE1FEE43197F1F700C00000F0E1B4
:100700008F9FC00111248BBB88B3816088BB8FE1B0
:100710009EE40197F1F700C0000088B38E7F88BB8C
:10072000EFE1FEE43197F1F700C0000008950F9368
:100730001F93CF93DF938C01C0E0D0E003C00E94F1
:1007400067032196F801EC0FFD1F80818111F7CF1F
:10075000DF91CF911F910F91089581E00E940803CE
:100760008FE19EE40197F1F700C0000008950E9418
:1007700038030E9459000E940A050E9449000E9405
:10078000230578940E94AD0386E690E00E949703CB
:100790002FEF89E698E1215080409040E1F700C0BA
:1007A00000000E9435058FE59AEE0197F1F700C031
:1007B00000008091A2008130A1F70E94AD038EE677
:1007C00090E00E9497030E94C3009FEF29E688E112
:1007D000915020408040E1F700C0000081E090E0AF
:1007E0009093610080936000809164000E94DB041C
:1007F0009FEF29E688E1915020408040E1F700C05A
:1008000000000E9435058FE59AEE0197F1F700C0D0
:1008100000008091A200811128C080916400909115
:100820006500049710F50E94AD0383E790E00E94F5
:10083000970380916400909165000E94D8009FEF1B
:1008400029E688E1915020408040E1F700C0000097
:1008500081E090E090936500809364009093630042
:10086000809362000E9405058DCF80916400909175
:100870006500019690936500809364000497E0F111
:10088000809162000E94F0049FEF21EE84E091507D
:1008900020408040E1F700C000008091A20081115B
:1008A00022C00E94AD0380E890E00E9497038091EF
:1008B0006200909163000E9416019FEF29E688E193
:1008C000915020408040E1F700C0000081E090E0BE
:1008D000909365008093640090936300809362001E
:1008E0000E9405054FCF80916200909163000196B0
:1008F0009093630080936200809164009091650002
:1009000084309105A8F12091620030916300243079
:10091000310570F120916000309161002130310586
:1009200039F59FEF29E688E1915020408040E1F7BA
:1009300000C000000E9405050E94AD038EE890E013
:100940000E9497030E94540181E090E0909365001B
:1009500080936400909363008093620080916000B4
:1009600090916100019690936100809360003CCF6C
:10097000049708F439CF8091620090916300049746
:1009800008F432CF8091600090916100029708F4E2
:100990002BCF0E94AD038EE690E00E9497030E9449
:1009A00054009FEF23EC89E0915020408040E1F714
:1009B00000C00000EECF823049F0833061F081301A
:1009C00071F48BED91E09BBD8ABD089586E292E0C3
:1009D0009BBD8ABD089584E893E09BBD8ABD0895C0
:1009E000823049F0833061F0813071F483E191E02D
:1009F0009BBD8ABD089588EC90E09BBD8ABD08959B
:100A000082E390E09BBD8ABD089587E791E09BBD9E
:100A10008ABD08950E9405058FB5826A8FBD8EB587
:100A20008B618EBD87E893E197BD86BD4FEF65E092
:100A300083E00E946A01089585B7846085BF8BB703
:100A400080688BBF089581B3816081BB81B3877F4C
:100A500081BB82B3886082BB0E941C0582E085BD99
:100A600014BC89B7806489BF08958091A800811162
:100A70000CC082B3816082BB80E58A95F1F782B3B6
:100A80008E7F82BB81E08093A80008951F920F9211
:100A90000FB60F9211242F933F934F935F936F9351
:100AA0007F938F939F93AF93BF93EF93FF93809127
:100AB000A800813009F04AC08091A70081110DC0C3
:100AC00014BC81E08093A7001092A3001092A400B0
:100AD0001092A5001092A60039C01092A200809139
:100AE000A3009091A400A091A500B091A600BA2FF8
:100AF000A92F982F882724B5BC01CD01620F711D45
:100B0000811D911D0E94910623E333E349EE52E4D7
:100B10000E94F0050E9462066093A9007093AA00EB
:100B20008093AB009093AC006F3171058105910506
:100B300018F481E08093A2001092A3001092A40008
:100B40001092A5001092A6001092A700FF91EF91BD
:100B5000BF91AF919F918F917F916F915F914F91D5
:100B60003F912F910F900FBE0F901F9018951F92DD
:100B70000F920FB60F9211242F938F939F93AF93E1
:100B8000BF938091A3009091A400A091A500B09183
:100B9000A6000196A11DB11D8093A3009093A4000F
:100BA000A093A500B093A6008B3D9240A105B1058E
:100BB00068F014BC1092A8001092A7001092A30035
:100BC0001092A4001092A5001092A600BF91AF91C0
:100BD0009F918F912F910F900FBE0F901F9018959E
:100BE0000E9404060C94E5060E94DE0658F00E945E
:100BF000D70640F029F45F3F29F00C94CE0651113E
:100C00000C9419070C94D4060E94F60668F39923F5
:100C1000B1F3552391F3951B550BBB27AA276217F8
:100C20007307840738F09F5F5F4F220F331F441F05
:100C3000AA1FA9F335D00E2E3AF0E0E832D0915039
:100C40005040E695001CCAF72BD0FE2F29D0660F26
:100C5000771F881FBB1F261737074807AB07B0E869
:100C600009F0BB0B802DBF01FF2793585F4F3AF06F
:100C70009E3F510578F00C94CE060C9419075F3F07
:100C8000E4F3983ED4F3869577956795B795F795F5
:100C90009F5FC9F7880F911D9695879597F90895DD
:100CA000E1E0660F771F881FBB1F62177307840779
:100CB000BA0720F0621B730B840BBA0BEE1F88F788
:100CC000E09508950E94FE0688F09F5798F0B92F8E
:100CD0009927B751B0F0E1F0660F771F881F991F71
:100CE0001AF0BA95C9F714C0B13091F00E941807F4
:100CF000B1E008950C941807672F782F8827B85F04
:100D000039F0B93FCCF3869577956795B395D9F7C8
:100D10003EF490958095709561957F4F8F4F9F4FD2
:100D20000895E89409C097FB3EF4909580957095DE
:100D300061957F4F8F4F9F4F9923A9F0F92F96E927
:100D4000BB279395F695879577956795B795F1119C
:100D5000F8CFFAF4BB0F11F460FF1BC06F5F7F4F39
:100D60008F4F9F4F16C0882311F096E911C077234B
:100D700021F09EE8872F762F05C0662371F096E854
:100D8000862F70E060E02AF09A95660F771F881F23
:100D9000DAF7880F9695879597F9089597F99F67E1
:100DA00080E870E060E008959FEF80EC08950024F3
:100DB0000A941616170618060906089500240A94C0
:100DC00012161306140605060895092E0394000C46
:100DD00011F4882352F0BB0F40F4BF2B11F460FFD5
:100DE00004C06F5F7F4F8F4F9F4F089557FD9058FE
:100DF000440F551F59F05F3F71F04795880F97FBDF
:100E0000991F61F09F3F79F0879508951216130698
:100E10001406551FF2CF4695F1DF08C016161706C7
:100E20001806991FF1CF86957105610508940895FC
:100E3000E894BB2766277727CB0197F90895F894A4
:020E4000FFCFE2
:100E4200010001000100466F7277617264007374E1
:100E52006F70007475726E696E67206C65667400DF
:100E62007475726E696E6720726967687400747552
:100E7200726E696E6720313830206465677265650D
:020E820000006E
:00000001FF
